{
  "contractName": "SupplyChain",
  "abi": [
    {
      "inputs": [],
      "stateMutability": "nonpayable",
      "type": "constructor"
    },
    {
      "anonymous": false,
      "inputs": [
        {
          "indexed": false,
          "internalType": "uint256",
          "name": "id",
          "type": "uint256"
        },
        {
          "indexed": false,
          "internalType": "string",
          "name": "name",
          "type": "string"
        },
        {
          "indexed": false,
          "internalType": "string",
          "name": "description",
          "type": "string"
        }
      ],
      "name": "MedicineAdded",
      "type": "event"
    },
    {
      "inputs": [
        {
          "internalType": "uint256",
          "name": "",
          "type": "uint256"
        }
      ],
      "name": "DIS",
      "outputs": [
        {
          "internalType": "address",
          "name": "addr",
          "type": "address"
        },
        {
          "internalType": "uint256",
          "name": "id",
          "type": "uint256"
        },
        {
          "internalType": "string",
          "name": "name",
          "type": "string"
        },
        {
          "internalType": "string",
          "name": "place",
          "type": "string"
        }
      ],
      "stateMutability": "view",
      "type": "function"
    },
    {
      "inputs": [
        {
          "internalType": "uint256",
          "name": "",
          "type": "uint256"
        }
      ],
      "name": "MAN",
      "outputs": [
        {
          "internalType": "address",
          "name": "addr",
          "type": "address"
        },
        {
          "internalType": "uint256",
          "name": "id",
          "type": "uint256"
        },
        {
          "internalType": "string",
          "name": "name",
          "type": "string"
        },
        {
          "internalType": "string",
          "name": "place",
          "type": "string"
        }
      ],
      "stateMutability": "view",
      "type": "function"
    },
    {
      "inputs": [
        {
          "internalType": "uint256",
          "name": "",
          "type": "uint256"
        }
      ],
      "name": "MedicineStock",
      "outputs": [
        {
          "internalType": "uint256",
          "name": "id",
          "type": "uint256"
        },
        {
          "internalType": "string",
          "name": "name",
          "type": "string"
        },
        {
          "internalType": "string",
          "name": "description",
          "type": "string"
        },
        {
          "components": [
            {
              "internalType": "uint256",
              "name": "orderedAt",
              "type": "uint256"
            },
            {
              "internalType": "uint256",
              "name": "rmsSuppliedAt",
              "type": "uint256"
            },
            {
              "internalType": "uint256",
              "name": "manufacturedAt",
              "type": "uint256"
            },
            {
              "internalType": "uint256",
              "name": "distributedAt",
              "type": "uint256"
            },
            {
              "internalType": "uint256",
              "name": "retailedAt",
              "type": "uint256"
            },
            {
              "internalType": "uint256",
              "name": "soldAt",
              "type": "uint256"
            }
          ],
          "internalType": "struct SupplyChain.Timestamps",
          "name": "times",
          "type": "tuple"
        },
        {
          "components": [
            {
              "internalType": "uint256",
              "name": "RMSid",
              "type": "uint256"
            },
            {
              "internalType": "uint256",
              "name": "MANid",
              "type": "uint256"
            },
            {
              "internalType": "uint256",
              "name": "DISid",
              "type": "uint256"
            },
            {
              "internalType": "uint256",
              "name": "RETid",
              "type": "uint256"
            }
          ],
          "internalType": "struct SupplyChain.ParticipantIds",
          "name": "participants",
          "type": "tuple"
        },
        {
          "internalType": "address",
          "name": "owner",
          "type": "address"
        },
        {
          "internalType": "enum SupplyChain.STAGE",
          "name": "stage",
          "type": "uint8"
        }
      ],
      "stateMutability": "view",
      "type": "function"
    },
    {
      "inputs": [],
      "name": "Owner",
      "outputs": [
        {
          "internalType": "address",
          "name": "",
          "type": "address"
        }
      ],
      "stateMutability": "view",
      "type": "function"
    },
    {
      "inputs": [
        {
          "internalType": "uint256",
          "name": "",
          "type": "uint256"
        }
      ],
      "name": "RET",
      "outputs": [
        {
          "internalType": "address",
          "name": "addr",
          "type": "address"
        },
        {
          "internalType": "uint256",
          "name": "id",
          "type": "uint256"
        },
        {
          "internalType": "string",
          "name": "name",
          "type": "string"
        },
        {
          "internalType": "string",
          "name": "place",
          "type": "string"
        }
      ],
      "stateMutability": "view",
      "type": "function"
    },
    {
      "inputs": [
        {
          "internalType": "uint256",
          "name": "",
          "type": "uint256"
        }
      ],
      "name": "RMS",
      "outputs": [
        {
          "internalType": "address",
          "name": "addr",
          "type": "address"
        },
        {
          "internalType": "uint256",
          "name": "id",
          "type": "uint256"
        },
        {
          "internalType": "string",
          "name": "name",
          "type": "string"
        },
        {
          "internalType": "string",
          "name": "place",
          "type": "string"
        }
      ],
      "stateMutability": "view",
      "type": "function"
    },
    {
      "inputs": [],
      "name": "disCtr",
      "outputs": [
        {
          "internalType": "uint256",
          "name": "",
          "type": "uint256"
        }
      ],
      "stateMutability": "view",
      "type": "function"
    },
    {
      "inputs": [],
      "name": "manCtr",
      "outputs": [
        {
          "internalType": "uint256",
          "name": "",
          "type": "uint256"
        }
      ],
      "stateMutability": "view",
      "type": "function"
    },
    {
      "inputs": [],
      "name": "medicineCtr",
      "outputs": [
        {
          "internalType": "uint256",
          "name": "",
          "type": "uint256"
        }
      ],
      "stateMutability": "view",
      "type": "function"
    },
    {
      "inputs": [],
      "name": "retCtr",
      "outputs": [
        {
          "internalType": "uint256",
          "name": "",
          "type": "uint256"
        }
      ],
      "stateMutability": "view",
      "type": "function"
    },
    {
      "inputs": [],
      "name": "rmsCtr",
      "outputs": [
        {
          "internalType": "uint256",
          "name": "",
          "type": "uint256"
        }
      ],
      "stateMutability": "view",
      "type": "function"
    },
    {
      "inputs": [
        {
          "internalType": "string",
          "name": "_name",
          "type": "string"
        },
        {
          "internalType": "string",
          "name": "_description",
          "type": "string"
        }
      ],
      "name": "addMedicine",
      "outputs": [],
      "stateMutability": "nonpayable",
      "type": "function"
    },
    {
      "inputs": [
        {
          "internalType": "uint256",
          "name": "_medicineID",
          "type": "uint256"
        }
      ],
      "name": "showStage",
      "outputs": [
        {
          "internalType": "string",
          "name": "",
          "type": "string"
        }
      ],
      "stateMutability": "view",
      "type": "function"
    },
    {
      "inputs": [
        {
          "internalType": "address",
          "name": "_address",
          "type": "address"
        },
        {
          "internalType": "string",
          "name": "_name",
          "type": "string"
        },
        {
          "internalType": "string",
          "name": "_place",
          "type": "string"
        }
      ],
      "name": "addRMS",
      "outputs": [],
      "stateMutability": "nonpayable",
      "type": "function"
    },
    {
      "inputs": [
        {
          "internalType": "address",
          "name": "_address",
          "type": "address"
        },
        {
          "internalType": "string",
          "name": "_name",
          "type": "string"
        },
        {
          "internalType": "string",
          "name": "_place",
          "type": "string"
        }
      ],
      "name": "addManufacturer",
      "outputs": [],
      "stateMutability": "nonpayable",
      "type": "function"
    },
    {
      "inputs": [
        {
          "internalType": "address",
          "name": "_address",
          "type": "address"
        },
        {
          "internalType": "string",
          "name": "_name",
          "type": "string"
        },
        {
          "internalType": "string",
          "name": "_place",
          "type": "string"
        }
      ],
      "name": "addDistributor",
      "outputs": [],
      "stateMutability": "nonpayable",
      "type": "function"
    },
    {
      "inputs": [
        {
          "internalType": "address",
          "name": "_address",
          "type": "address"
        },
        {
          "internalType": "string",
          "name": "_name",
          "type": "string"
        },
        {
          "internalType": "string",
          "name": "_place",
          "type": "string"
        }
      ],
      "name": "addRetailer",
      "outputs": [],
      "stateMutability": "nonpayable",
      "type": "function"
    },
    {
      "inputs": [
        {
          "internalType": "uint256",
          "name": "_medicineID",
          "type": "uint256"
        }
      ],
      "name": "RMSsupply",
      "outputs": [],
      "stateMutability": "nonpayable",
      "type": "function"
    },
    {
      "inputs": [
        {
          "internalType": "uint256",
          "name": "_medicineID",
          "type": "uint256"
        }
      ],
      "name": "Manufacturing",
      "outputs": [],
      "stateMutability": "nonpayable",
      "type": "function"
    },
    {
      "inputs": [
        {
          "internalType": "uint256",
          "name": "_medicineID",
          "type": "uint256"
        }
      ],
      "name": "Distribute",
      "outputs": [],
      "stateMutability": "nonpayable",
      "type": "function"
    },
    {
      "inputs": [
        {
          "internalType": "uint256",
          "name": "_medicineID",
          "type": "uint256"
        }
      ],
      "name": "Retail",
      "outputs": [],
      "stateMutability": "nonpayable",
      "type": "function"
    },
    {
      "inputs": [
        {
          "internalType": "uint256",
          "name": "_medicineID",
          "type": "uint256"
        }
      ],
      "name": "sold",
      "outputs": [],
      "stateMutability": "nonpayable",
      "type": "function"
    }
  ],
  "bytecode": "0x60806040526000600155600060035560006005556000600755600060095534801561002957600080fd5b50600080546001600160a01b03191633179055611b1c8061004b6000396000f3fe608060405234801561001057600080fd5b50600436106101425760003560e01c806386c18275116100b8578063b4a99a4e1161007c578063b4a99a4e14610273578063cc40306914610288578063dd2863981461029b578063e101a2e0146102a3578063eb1a06b5146102c3578063eef5cb40146102e957610142565b806386c182751461021f5780638f4183cc146102325780639c03facb14610245578063a48d335a14610258578063a95f29d91461026b57610142565b8063438e9c4d1161010a578063438e9c4d146101c35780634def474a146101cb57806359bf286f146101de5780636a992c9f146101f15780637e43d94d14610204578063857ddb041461020c57610142565b80632a4af440146101475780632b0187ac1461015c5780632b70b08d146101885780632bdb2e6b1461019b5780633d753a1c146101b0575b600080fd5b61015a6101553660046115e8565b6102fc565b005b61016f61016a3660046116c7565b6103d9565b60405161017f9493929190611793565b60405180910390f35b61015a6101963660046115e8565b61051c565b6101a36105cc565b60405161017f919061198f565b61015a6101be3660046116c7565b6105d2565b6101a36106bc565b61015a6101d93660046116c7565b6106c2565b61016f6101ec3660046116c7565b6107ac565b61015a6101ff3660046115e8565b6107de565b6101a361088e565b61015a61021a3660046115e8565b610894565b61015a61022d3660046116c7565b610944565b61015a610240366004611666565b610a2d565b61015a6102533660046116c7565b610c4f565b61015a6102663660046116c7565b610d61565b6101a3610e4b565b61027b610e51565b60405161017f919061177f565b61016f6102963660046116c7565b610e60565b6101a3610e92565b6102b66102b13660046116c7565b610e98565b60405161017f91906117d7565b6102d66102d13660046116c7565b61119d565b60405161017f97969594939291906119cd565b61016f6102f73660046116c7565b61136f565b6000546001600160a01b0316331461032f5760405162461bcd60e51b8152600401610326906117f1565b60405180910390fd5b6007805490600061033f83611aa9565b9091555050604080516080810182526001600160a01b03858116825260075460208084018281528486018881526060860188905260009384526008835295909220845181546001600160a01b03191694169390931783559051600183015592518051929391926103b592600285019201906114ce565b50606082015180516103d19160038401916020909101906114ce565b505050505050565b6008602052600090815260409020805460018201546002830180546001600160a01b0390931693919261040b90611a6e565b80601f016020809104026020016040519081016040528092919081815260200182805461043790611a6e565b80156104845780601f1061045957610100808354040283529160200191610484565b820191906000526020600020905b81548152906001019060200180831161046757829003601f168201915b50505050509080600301805461049990611a6e565b80601f01602080910402602001604051908101604052809291908181526020018280546104c590611a6e565b80156105125780601f106104e757610100808354040283529160200191610512565b820191906000526020600020905b8154815290600101906020018083116104f557829003601f168201915b5050505050905084565b6000546001600160a01b031633146105465760405162461bcd60e51b8152600401610326906117f1565b6003805490600061055683611aa9565b9091555050604080516080810182526001600160a01b03858116825260035460208084018281528486018881526060860188905260009384526004835295909220845181546001600160a01b03191694169390931783559051600183015592518051929391926103b592600285019201906114ce565b60075481565b6000811180156105e457506001548111155b6106005760405162461bcd60e51b815260040161032690611832565b600061060b336113a1565b90506000811161062d5760405162461bcd60e51b81526004016103269061185f565b60036000838152600260205260409020600d0154600160a01b900460ff16600581111561066a57634e487b7160e01b600052602160045260246000fd5b146106875760405162461bcd60e51b81526004016103269061188b565b600091825260026020526040909120600c810191909155600d8101805460ff60a01b1916600160a21b17905542600790910155565b60055481565b6000811180156106d457506001548111155b6106f05760405162461bcd60e51b815260040161032690611832565b60006106fb336113f3565b90506000811161071d5760405162461bcd60e51b8152600401610326906118c2565b60026000838152600260205260409020600d0154600160a01b900460ff16600581111561075a57634e487b7160e01b600052602160045260246000fd5b146107775760405162461bcd60e51b81526004016103269061188b565b600091825260026020526040909120600b810191909155600d8101805460ff60a01b1916600360a01b17905542600690910155565b600a602052600090815260409020805460018201546002830180546001600160a01b0390931693919261040b90611a6e565b6000546001600160a01b031633146108085760405162461bcd60e51b8152600401610326906117f1565b6005805490600061081883611aa9565b9091555050604080516080810182526001600160a01b03858116825260055460208084018281528486018881526060860188905260009384526006835295909220845181546001600160a01b03191694169390931783559051600183015592518051929391926103b592600285019201906114ce565b60095481565b6000546001600160a01b031633146108be5760405162461bcd60e51b8152600401610326906117f1565b600980549060006108ce83611aa9565b9091555050604080516080810182526001600160a01b0385811682526009546020808401828152848601888152606086018890526000938452600a835295909220845181546001600160a01b03191694169390931783559051600183015592518051929391926103b592600285019201906114ce565b60008111801561095657506001548111155b6109725760405162461bcd60e51b815260040161032690611832565b600061097d3361143c565b90506000811161099f5760405162461bcd60e51b815260040161032690611968565b600080838152600260205260409020600d0154600160a01b900460ff1660058111156109db57634e487b7160e01b600052602160045260246000fd5b146109f85760405162461bcd60e51b81526004016103269061188b565b6000918252600260205260409091206009810191909155600d8101805460ff60a01b1916600160a01b17905542600490910155565b60018054906000610a3d83611aa9565b91905055506040518060e0016040528060015481526020018381526020018281526020016040518060c001604052804281526020016000815260200160008152602001600081526020016000815260200160008152508152602001604051806080016040528060008152602001600081526020016000815260200160008152508152602001336001600160a01b0316815260200160006005811115610af257634e487b7160e01b600052602160045260246000fd5b9052600180546000908152600260209081526040909120835181558382015180519193610b2593908501929101906114ce565b5060408201518051610b419160028401916020909101906114ce565b50606082810151805160038401556020808201516004850155604080830151600580870191909155838501516006870155608080850151600788015560a09485015160088801558701518051600988015592830151600a87015590820151600b860155920151600c840155830151600d830180546001600160a01b0319166001600160a01b039092169190911780825560c08501519260ff60a01b1990911690600160a01b908490811115610c0657634e487b7160e01b600052602160045260246000fd5b02179055509050507fd9d81dc5071f1bf26b46320ec4b0acbe31d8b7dc51e46649fca2dad52a2e6f186001548383604051610c4393929190611998565b60405180910390a15050565b600081118015610c6157506001548111155b610c7d5760405162461bcd60e51b815260040161032690611832565b6000610c88336113a1565b905060008111610caa5760405162461bcd60e51b81526004016103269061185f565b6000828152600260205260409020600c01548114610cda5760405162461bcd60e51b815260040161032690611921565b60046000838152600260205260409020600d0154600160a01b900460ff166005811115610d1757634e487b7160e01b600052602160045260246000fd5b14610d345760405162461bcd60e51b81526004016103269061188b565b506000908152600260205260409020600d8101805460ff60a01b1916600560a01b17905542600890910155565b600081118015610d7357506001548111155b610d8f5760405162461bcd60e51b815260040161032690611832565b6000610d9a33611485565b905060008111610dbc5760405162461bcd60e51b8152600401610326906118f1565b60016000838152600260205260409020600d0154600160a01b900460ff166005811115610df957634e487b7160e01b600052602160045260246000fd5b14610e165760405162461bcd60e51b81526004016103269061188b565b600091825260026020526040909120600a810191909155600d8101805460ff60a01b1916600160a11b17905542600590910155565b60015481565b6000546001600160a01b031681565b6006602052600090815260409020805460018201546002830180546001600160a01b0390931693919261040b90611a6e565b60035481565b6060600082118015610eac57506001548211155b610ec85760405162461bcd60e51b815260040161032690611832565b600080838152600260205260409020600d0154600160a01b900460ff166005811115610f0457634e487b7160e01b600052602160045260246000fd5b1415610f37575060408051808201909152601081526f1359591a58da5b994813dc99195c995960821b6020820152611198565b60016000838152600260205260409020600d0154600160a01b900460ff166005811115610f7457634e487b7160e01b600052602160045260246000fd5b1415610fb4575060408051808201909152601981527f526177204d6174657269616c20537570706c79205374616765000000000000006020820152611198565b60026000838152600260205260409020600d0154600160a01b900460ff166005811115610ff157634e487b7160e01b600052602160045260246000fd5b141561102757506040805180820190915260138152724d616e75666163747572696e6720537461676560681b6020820152611198565b60036000838152600260205260409020600d0154600160a01b900460ff16600581111561106457634e487b7160e01b600052602160045260246000fd5b14156110995750604080518082019091526012815271446973747269627574696f6e20537461676560701b6020820152611198565b60046000838152600260205260409020600d0154600160a01b900460ff1660058111156110d657634e487b7160e01b600052602160045260246000fd5b1415611105575060408051808201909152600c81526b52657461696c20537461676560a01b6020820152611198565b60056000838152600260205260409020600d0154600160a01b900460ff16600581111561114257634e487b7160e01b600052602160045260246000fd5b1415611172575060408051808201909152600d81526c1359591a58da5b994814dbdb19609a1b6020820152611198565b5060408051808201909152600d81526c556e6b6e6f776e20537461676560981b60208201525b919050565b600260205260009081526040902080546001820180549192916111bf90611a6e565b80601f01602080910402602001604051908101604052809291908181526020018280546111eb90611a6e565b80156112385780601f1061120d57610100808354040283529160200191611238565b820191906000526020600020905b81548152906001019060200180831161121b57829003601f168201915b50505050509080600201805461124d90611a6e565b80601f016020809104026020016040519081016040528092919081815260200182805461127990611a6e565b80156112c65780601f1061129b576101008083540402835291602001916112c6565b820191906000526020600020905b8154815290600101906020018083116112a957829003601f168201915b50506040805160c0810182526003870154815260048701546020808301919091526005880154828401526006880154606080840191909152600789015460808085019190915260088a015460a08501528451908101855260098a01548152600a8a015492810192909252600b89015493820193909352600c88015492810192909252600d909601549495949093506001600160a01b0381169250600160a01b900460ff16905087565b6004602052600090815260409020805460018201546002830180546001600160a01b0390931693919261040b90611a6e565b600060015b60095481116113ea576000818152600a60205260409020546001600160a01b03848116911614156113d8579050611198565b806113e281611aa9565b9150506113a6565b50600092915050565b600060015b60075481116113ea576000818152600860205260409020546001600160a01b038481169116141561142a579050611198565b8061143481611aa9565b9150506113f8565b600060015b60035481116113ea576000818152600460205260409020546001600160a01b0384811691161415611473579050611198565b8061147d81611aa9565b915050611441565b600060015b60055481116113ea576000818152600660205260409020546001600160a01b03848116911614156114bc579050611198565b806114c681611aa9565b91505061148a565b8280546114da90611a6e565b90600052602060002090601f0160209004810192826114fc5760008555611542565b82601f1061151557805160ff1916838001178555611542565b82800160010185558215611542579182015b82811115611542578251825591602001919060010190611527565b5061154e929150611552565b5090565b5b8082111561154e5760008155600101611553565b600082601f830112611577578081fd5b813567ffffffffffffffff8082111561159257611592611ad0565b604051601f8301601f1916810160200182811182821017156115b6576115b6611ad0565b6040528281528483016020018610156115cd578384fd5b82602086016020830137918201602001929092529392505050565b6000806000606084860312156115fc578283fd5b83356001600160a01b0381168114611612578384fd5b9250602084013567ffffffffffffffff8082111561162e578384fd5b61163a87838801611567565b9350604086013591508082111561164f578283fd5b5061165c86828701611567565b9150509250925092565b60008060408385031215611678578182fd5b823567ffffffffffffffff8082111561168f578384fd5b61169b86838701611567565b935060208501359150808211156116b0578283fd5b506116bd85828601611567565b9150509250929050565b6000602082840312156116d8578081fd5b5035919050565b6001600160a01b03169052565b6006811061170a57634e487b7160e01b600052602160045260246000fd5b9052565b60008151808452815b8181101561173357602081850181015186830182015201611717565b818111156117445782602083870101525b50601f01601f19169290920160200192915050565b805182526020810151602083015260408101516040830152606081015160608301525050565b6001600160a01b0391909116815260200190565b600060018060a01b0386168252846020830152608060408301526117ba608083018561170e565b82810360608401526117cc818561170e565b979650505050505050565b6000602082526117ea602083018461170e565b9392505050565b60208082526021908201527f4f6e6c79206f776e65722063616e2063616c6c20746869732066756e6374696f6040820152603760f91b606082015260800190565b602080825260139082015272125b9d985b1a59081b59591a58da5b99481251606a1b604082015260600190565b60208082526012908201527114995d185a5b195c881b9bdd08199bdd5b9960721b604082015260600190565b60208082526018908201527f496e76616c6964207374616765207472616e736974696f6e0000000000000000604082015260600190565b602080825260159082015274111a5cdd1c9a589d5d1bdc881b9bdd08199bdd5b99605a1b604082015260600190565b60208082526016908201527513585b9d599858dd1d5c995c881b9bdd08199bdd5b9960521b604082015260600190565b60208082526027908201527f4f6e6c792061737369676e65642072657461696c65722063616e206d61726b20604082015266185cc81cdbdb1960ca1b606082015260800190565b6020808252600d908201526c149354c81b9bdd08199bdd5b99609a1b604082015260600190565b90815260200190565b6000848252606060208301526119b1606083018561170e565b82810360408401526119c3818561170e565b9695505050505050565b60006101e08983528060208401526119e78184018a61170e565b905082810360408401526119fb818961170e565b9150508551606083015260208601516080830152604086015160a0830152606086015160c0830152608086015160e083015260a0860151610100830152611a46610120830186611759565b611a546101a08301856116df565b611a626101c08301846116ec565b98975050505050505050565b600281046001821680611a8257607f821691505b60208210811415611aa357634e487b7160e01b600052602260045260246000fd5b50919050565b6000600019821415611ac957634e487b7160e01b81526011600452602481fd5b5060010190565b634e487b7160e01b600052604160045260246000fdfea26469706673582212202af405bb130bfd912a34fe9fea6f12ff534d934ca6a6a08b7c2252109254200d64736f6c63430008000033",
  "immutableReferences": {},
  "source": "// SPDX-License-Identifier: MIT\r\npragma solidity >=0.8.0 <0.9.0;\r\n\r\ncontract SupplyChain {\r\n    address public Owner;\r\n\r\n    constructor() {\r\n        Owner = msg.sender;\r\n    }\r\n\r\n    modifier onlyByOwner() {\r\n        require(msg.sender == Owner, \"Only owner can call this function\");\r\n        _;\r\n    }\r\n\r\n    enum STAGE {\r\n        Ordered,\r\n        RawMaterialSupply,\r\n        Manufacture,\r\n        Distribution,\r\n        Retail,\r\n        Sold\r\n    }\r\n\r\n    // Grouped timestamp fields\r\n    struct Timestamps {\r\n        uint256 orderedAt;\r\n        uint256 rmsSuppliedAt;\r\n        uint256 manufacturedAt;\r\n        uint256 distributedAt;\r\n        uint256 retailedAt;\r\n        uint256 soldAt;\r\n    }\r\n\r\n    // Grouped participant IDs\r\n    struct ParticipantIds {\r\n        uint256 RMSid;\r\n        uint256 MANid;\r\n        uint256 DISid;\r\n        uint256 RETid;\r\n    }\r\n\r\n    struct Medicine {\r\n        uint256 id;\r\n        string name;\r\n        string description;\r\n        Timestamps times;\r\n        ParticipantIds participants;\r\n        address owner;\r\n        STAGE stage;\r\n    }\r\n\r\n    uint256 public medicineCtr = 0;\r\n    mapping(uint256 => Medicine) public MedicineStock;\r\n\r\n    // Participant structs\r\n    struct RawMaterialSupplier {\r\n        address addr;\r\n        uint256 id;\r\n        string name;\r\n        string place;\r\n    }\r\n    uint256 public rmsCtr = 0;\r\n    mapping(uint256 => RawMaterialSupplier) public RMS;\r\n\r\n    struct Manufacturer {\r\n        address addr;\r\n        uint256 id;\r\n        string name;\r\n        string place;\r\n    }\r\n    uint256 public manCtr = 0;\r\n    mapping(uint256 => Manufacturer) public MAN;\r\n\r\n    struct Distributor {\r\n        address addr;\r\n        uint256 id;\r\n        string name;\r\n        string place;\r\n    }\r\n    uint256 public disCtr = 0;\r\n    mapping(uint256 => Distributor) public DIS;\r\n\r\n    struct Retailer {\r\n        address addr;\r\n        uint256 id;\r\n        string name;\r\n        string place;\r\n    }\r\n    uint256 public retCtr = 0;\r\n    mapping(uint256 => Retailer) public RET;\r\n\r\n    // Medicine functions\r\n    function addMedicine(\r\n        string memory _name,\r\n        string memory _description\r\n    ) public {\r\n        medicineCtr++;\r\n\r\n        MedicineStock[medicineCtr] = Medicine({\r\n            id: medicineCtr,\r\n            name: _name,\r\n            description: _description,\r\n            times: Timestamps({\r\n                orderedAt: block.timestamp,\r\n                rmsSuppliedAt: 0,\r\n                manufacturedAt: 0,\r\n                distributedAt: 0,\r\n                retailedAt: 0,\r\n                soldAt: 0\r\n            }),\r\n            participants: ParticipantIds({\r\n                RMSid: 0,\r\n                MANid: 0,\r\n                DISid: 0,\r\n                RETid: 0\r\n            }),\r\n            owner: msg.sender,\r\n            stage: STAGE.Ordered\r\n        });\r\n\r\n        emit MedicineAdded(medicineCtr, _name, _description);\r\n    }\r\n\r\n    function showStage(\r\n        uint256 _medicineID\r\n    ) public view returns (string memory) {\r\n        require(\r\n            _medicineID > 0 && _medicineID <= medicineCtr,\r\n            \"Invalid medicine ID\"\r\n        );\r\n\r\n        if (MedicineStock[_medicineID].stage == STAGE.Ordered)\r\n            return \"Medicine Ordered\";\r\n        else if (MedicineStock[_medicineID].stage == STAGE.RawMaterialSupply)\r\n            return \"Raw Material Supply Stage\";\r\n        else if (MedicineStock[_medicineID].stage == STAGE.Manufacture)\r\n            return \"Manufacturing Stage\";\r\n        else if (MedicineStock[_medicineID].stage == STAGE.Distribution)\r\n            return \"Distribution Stage\";\r\n        else if (MedicineStock[_medicineID].stage == STAGE.Retail)\r\n            return \"Retail Stage\";\r\n        else if (MedicineStock[_medicineID].stage == STAGE.Sold)\r\n            return \"Medicine Sold\";\r\n        return \"Unknown Stage\";\r\n    }\r\n\r\n    // Participant management\r\n    function addRMS(\r\n        address _address,\r\n        string memory _name,\r\n        string memory _place\r\n    ) public onlyByOwner {\r\n        rmsCtr++;\r\n        RMS[rmsCtr] = RawMaterialSupplier(_address, rmsCtr, _name, _place);\r\n    }\r\n\r\n    function addManufacturer(\r\n        address _address,\r\n        string memory _name,\r\n        string memory _place\r\n    ) public onlyByOwner {\r\n        manCtr++;\r\n        MAN[manCtr] = Manufacturer(_address, manCtr, _name, _place);\r\n    }\r\n\r\n    function addDistributor(\r\n        address _address,\r\n        string memory _name,\r\n        string memory _place\r\n    ) public onlyByOwner {\r\n        disCtr++;\r\n        DIS[disCtr] = Distributor(_address, disCtr, _name, _place);\r\n    }\r\n\r\n    function addRetailer(\r\n        address _address,\r\n        string memory _name,\r\n        string memory _place\r\n    ) public onlyByOwner {\r\n        retCtr++;\r\n        RET[retCtr] = Retailer(_address, retCtr, _name, _place);\r\n    }\r\n\r\n    // Supply chain functions\r\n    function RMSsupply(uint256 _medicineID) public {\r\n        require(\r\n            _medicineID > 0 && _medicineID <= medicineCtr,\r\n            \"Invalid medicine ID\"\r\n        );\r\n        uint256 _id = findRMS(msg.sender);\r\n        require(_id > 0, \"RMS not found\");\r\n        require(\r\n            MedicineStock[_medicineID].stage == STAGE.Ordered,\r\n            \"Invalid stage transition\"\r\n        );\r\n\r\n        MedicineStock[_medicineID].participants.RMSid = _id;\r\n        MedicineStock[_medicineID].stage = STAGE.RawMaterialSupply;\r\n        MedicineStock[_medicineID].times.rmsSuppliedAt = block.timestamp;\r\n    }\r\n\r\n    function Manufacturing(uint256 _medicineID) public {\r\n        require(\r\n            _medicineID > 0 && _medicineID <= medicineCtr,\r\n            \"Invalid medicine ID\"\r\n        );\r\n        uint256 _id = findMAN(msg.sender);\r\n        require(_id > 0, \"Manufacturer not found\");\r\n        require(\r\n            MedicineStock[_medicineID].stage == STAGE.RawMaterialSupply,\r\n            \"Invalid stage transition\"\r\n        );\r\n\r\n        MedicineStock[_medicineID].participants.MANid = _id;\r\n        MedicineStock[_medicineID].stage = STAGE.Manufacture;\r\n        MedicineStock[_medicineID].times.manufacturedAt = block.timestamp;\r\n    }\r\n\r\n    function Distribute(uint256 _medicineID) public {\r\n        require(\r\n            _medicineID > 0 && _medicineID <= medicineCtr,\r\n            \"Invalid medicine ID\"\r\n        );\r\n        uint256 _id = findDIS(msg.sender);\r\n        require(_id > 0, \"Distributor not found\");\r\n        require(\r\n            MedicineStock[_medicineID].stage == STAGE.Manufacture,\r\n            \"Invalid stage transition\"\r\n        );\r\n\r\n        MedicineStock[_medicineID].participants.DISid = _id;\r\n        MedicineStock[_medicineID].stage = STAGE.Distribution;\r\n        MedicineStock[_medicineID].times.distributedAt = block.timestamp;\r\n    }\r\n\r\n    function Retail(uint256 _medicineID) public {\r\n        require(\r\n            _medicineID > 0 && _medicineID <= medicineCtr,\r\n            \"Invalid medicine ID\"\r\n        );\r\n        uint256 _id = findRET(msg.sender);\r\n        require(_id > 0, \"Retailer not found\");\r\n        require(\r\n            MedicineStock[_medicineID].stage == STAGE.Distribution,\r\n            \"Invalid stage transition\"\r\n        );\r\n\r\n        MedicineStock[_medicineID].participants.RETid = _id;\r\n        MedicineStock[_medicineID].stage = STAGE.Retail;\r\n        MedicineStock[_medicineID].times.retailedAt = block.timestamp;\r\n    }\r\n\r\n    function sold(uint256 _medicineID) public {\r\n        require(\r\n            _medicineID > 0 && _medicineID <= medicineCtr,\r\n            \"Invalid medicine ID\"\r\n        );\r\n        uint256 _id = findRET(msg.sender);\r\n        require(_id > 0, \"Retailer not found\");\r\n        require(\r\n            _id == MedicineStock[_medicineID].participants.RETid,\r\n            \"Only assigned retailer can mark as sold\"\r\n        );\r\n        require(\r\n            MedicineStock[_medicineID].stage == STAGE.Retail,\r\n            \"Invalid stage transition\"\r\n        );\r\n\r\n        MedicineStock[_medicineID].stage = STAGE.Sold;\r\n        MedicineStock[_medicineID].times.soldAt = block.timestamp;\r\n    }\r\n\r\n    // Helper functions\r\n    function findRMS(address _address) private view returns (uint256) {\r\n        for (uint256 i = 1; i <= rmsCtr; i++) {\r\n            if (RMS[i].addr == _address) return i;\r\n        }\r\n        return 0;\r\n    }\r\n\r\n    function findMAN(address _address) private view returns (uint256) {\r\n        for (uint256 i = 1; i <= manCtr; i++) {\r\n            if (MAN[i].addr == _address) return i;\r\n        }\r\n        return 0;\r\n    }\r\n\r\n    function findDIS(address _address) private view returns (uint256) {\r\n        for (uint256 i = 1; i <= disCtr; i++) {\r\n            if (DIS[i].addr == _address) return i;\r\n        }\r\n        return 0;\r\n    }\r\n\r\n    function findRET(address _address) private view returns (uint256) {\r\n        for (uint256 i = 1; i <= retCtr; i++) {\r\n            if (RET[i].addr == _address) return i;\r\n        }\r\n        return 0;\r\n    }\r\n\r\n    event MedicineAdded(uint256 id, string name, string description);\r\n}\r\n",
  "sourcePath": "D:\\project\\Supply-Chain-Blockchain-master\\contracts\\SupplyChain.sol",
  "compiler": {
    "name": "solc",
    "version": "0.8.0+commit.c7dfd78e.Emscripten.clang"
  },
  "schemaVersion": "3.4.16",
  "updatedAt": "2025-04-05T08:32:07.301Z",
  "devdoc": {
    "kind": "dev",
    "methods": {},
    "version": 1
  },
  "userdoc": {
    "kind": "user",
    "methods": {},
    "version": 1
  }
}